{
  "abi": [
    {
      "inputs": [
        {
          "internalType": "uint256",
          "name": "_minimumStaking",
          "type": "uint256"
        }
      ],
      "stateMutability": "nonpayable",
      "type": "constructor"
    },
    {
      "inputs": [
        {
          "internalType": "uint256",
          "name": "",
          "type": "uint256"
        }
      ],
      "name": "InvalidStakeId",
      "type": "error"
    },
    {
      "inputs": [
        {
          "internalType": "uint256",
          "name": "",
          "type": "uint256"
        }
      ],
      "name": "NoStakingDetected",
      "type": "error"
    },
    {
      "inputs": [],
      "name": "NotAuthorized",
      "type": "error"
    },
    {
      "inputs": [],
      "name": "NothingToUnstake",
      "type": "error"
    },
    {
      "inputs": [
        {
          "internalType": "uint256",
          "name": "",
          "type": "uint256"
        }
      ],
      "name": "ZeroValue",
      "type": "error"
    },
    {
      "anonymous": false,
      "inputs": [
        {
          "indexed": true,
          "internalType": "address",
          "name": "previousOwner",
          "type": "address"
        },
        {
          "indexed": true,
          "internalType": "address",
          "name": "newOwner",
          "type": "address"
        }
      ],
      "name": "OwnershipTransferred",
      "type": "event"
    },
    {
      "anonymous": false,
      "inputs": [
        {
          "indexed": false,
          "internalType": "uint256",
          "name": "",
          "type": "uint256"
        }
      ],
      "name": "Staked",
      "type": "event"
    },
    {
      "anonymous": false,
      "inputs": [
        {
          "indexed": false,
          "internalType": "uint256",
          "name": "",
          "type": "uint256"
        }
      ],
      "name": "Unstaked",
      "type": "event"
    },
    {
      "inputs": [],
      "name": "compoundStaking",
      "outputs": [
        {
          "internalType": "bool",
          "name": "",
          "type": "bool"
        }
      ],
      "stateMutability": "payable",
      "type": "function"
    },
    {
      "inputs": [],
      "name": "getStakeProfile",
      "outputs": [
        {
          "components": [
            {
              "internalType": "uint256",
              "name": "depositTime",
              "type": "uint256"
            },
            {
              "internalType": "uint256",
              "name": "celoAmount",
              "type": "uint256"
            },
            {
              "internalType": "uint256",
              "name": "miningSpeed",
              "type": "uint256"
            },
            {
              "internalType": "address",
              "name": "account",
              "type": "address"
            },
            {
              "internalType": "bool",
              "name": "isCompounded",
              "type": "bool"
            }
          ],
          "internalType": "struct IVault.Staker",
          "name": "stk",
          "type": "tuple"
        }
      ],
      "stateMutability": "view",
      "type": "function"
    },
    {
      "inputs": [],
      "name": "minimumStaking",
      "outputs": [
        {
          "internalType": "uint256",
          "name": "",
          "type": "uint256"
        }
      ],
      "stateMutability": "view",
      "type": "function"
    },
    {
      "inputs": [],
      "name": "owner",
      "outputs": [
        {
          "internalType": "address",
          "name": "",
          "type": "address"
        }
      ],
      "stateMutability": "view",
      "type": "function"
    },
    {
      "inputs": [],
      "name": "renounceOwnership",
      "outputs": [],
      "stateMutability": "nonpayable",
      "type": "function"
    },
    {
      "inputs": [
        {
          "internalType": "contract IERC20",
          "name": "_token",
          "type": "address"
        }
      ],
      "name": "setToken",
      "outputs": [],
      "stateMutability": "nonpayable",
      "type": "function"
    },
    {
      "inputs": [],
      "name": "stake",
      "outputs": [
        {
          "internalType": "bool",
          "name": "",
          "type": "bool"
        }
      ],
      "stateMutability": "payable",
      "type": "function"
    },
    {
      "inputs": [
        {
          "internalType": "address",
          "name": "who",
          "type": "address"
        }
      ],
      "name": "stakeOnBehalf",
      "outputs": [
        {
          "internalType": "bool",
          "name": "",
          "type": "bool"
        }
      ],
      "stateMutability": "payable",
      "type": "function"
    },
    {
      "inputs": [],
      "name": "stakers",
      "outputs": [
        {
          "internalType": "uint256",
          "name": "",
          "type": "uint256"
        }
      ],
      "stateMutability": "view",
      "type": "function"
    },
    {
      "inputs": [],
      "name": "token",
      "outputs": [
        {
          "internalType": "contract IERC20",
          "name": "",
          "type": "address"
        }
      ],
      "stateMutability": "view",
      "type": "function"
    },
    {
      "inputs": [
        {
          "internalType": "address",
          "name": "newOwner",
          "type": "address"
        }
      ],
      "name": "transferOwnership",
      "outputs": [],
      "stateMutability": "nonpayable",
      "type": "function"
    },
    {
      "inputs": [],
      "name": "unstake",
      "outputs": [
        {
          "internalType": "bool",
          "name": "",
          "type": "bool"
        }
      ],
      "stateMutability": "nonpayable",
      "type": "function"
    },
    {
      "inputs": [],
      "name": "withdraw",
      "outputs": [],
      "stateMutability": "nonpayable",
      "type": "function"
    },
    {
      "stateMutability": "payable",
      "type": "receive"
    }
  ],
  "bytecode": {
    "object": "0x608060405234801561001057600080fd5b506040516111ed3803806111ed83398101604081905261002f916100e4565b61003833610094565b6000811161008c5760405162461bcd60e51b815260206004820152601760248201527f4d696e696d756d207374616b696e6720746f6f206c6f77000000000000000000604482015260640160405180910390fd5b6001556100fd565b600080546001600160a01b038381166001600160a01b0319831681178455604051919092169283917f8be0079c531659141344cd1fd0a4f28419497f9722a3daafe3b4186f6b6457e09190a35050565b6000602082840312156100f657600080fd5b5051919050565b6110e18061010c6000396000f3fe6080604052600436106100c65760003560e01c80638da5cb5b1161007f578063d9f5118311610059578063d9f5118314610247578063f2fde38b1461024f578063fc0c546a1461026f578063fed1252a1461028f57600080fd5b80638da5cb5b146101de5780639cc776f514610210578063d479ed711461022357600080fd5b80630f56407114610101578063144fa6d7146101675780632def6620146101875780633a4b66f1146101ac5780633ccfd60b146101b4578063715018a6146101c957600080fd5b366100fc57600034116100fa5760405162461bcd60e51b815260206004820152600060248201526044015b60405180910390fd5b005b600080fd5b34801561010d57600080fd5b506101166102a5565b60405161015e91908151815260208083015190820152604080830151908201526060808301516001600160a01b03169082015260809182015115159181019190915260a00190565b60405180910390f35b34801561017357600080fd5b506100fa610182366004610bc4565b6102bb565b34801561019357600080fd5b5061019c6102e5565b604051901515815260200161015e565b61019c6103f2565b3480156101c057600080fd5b506100fa610400565b3480156101d557600080fd5b506100fa6104c6565b3480156101ea57600080fd5b506000546001600160a01b03165b6040516001600160a01b03909116815260200161015e565b61019c61021e366004610bc4565b6104da565b34801561022f57600080fd5b5061023960015481565b60405190815260200161015e565b61019c610546565b34801561025b57600080fd5b506100fa61026a366004610bc4565b610554565b34801561027b57600080fd5b506003546101f8906001600160a01b031681565b34801561029b57600080fd5b5061023960025481565b6102ad610b68565b6102b6336105cd565b905090565b6102c361063a565b600380546001600160a01b0319166001600160a01b0392909216919091179055565b336000908152600460209081526040808320815160a081018352815481526001820154938101849052600282015492810192909252600301546001600160a01b0381166060830152600160a01b900460ff161515608082015290820361036657806020015160405163076ca5e760e21b81526004016100f191815260200190565b60608101516001600160a01b03166103c05760405162461bcd60e51b815260206004820152601960248201527f4163636f756e7420616e6f6d616c6c792064657465637465640000000000000060448201526064016100f1565b6103ea81606001516103e38360400151846020015161069490919063ffffffff16565b83516106a7565b600191505090565b60006102b633346000610805565b600061040b336105cd565b60600151604051633ce051f560e11b81523360048201529091506001600160a01b038216906379c0a3ea90602401600060405180830381600087803b15801561045357600080fd5b505af1158015610467573d6000803e3d6000fd5b5050604051627a79d960e91b81523360048201526001600160a01b038416925063f4f3b2009150602401600060405180830381600087803b1580156104ab57600080fd5b505af11580156104bf573d6000803e3d6000fd5b5050505050565b6104ce61063a565b6104d860006109ea565b565b60006001600160a01b03821633036105345760405162461bcd60e51b815260206004820152601e60248201527f706c65617365207573652064657369676e617465642066756e6374696f6e000060448201526064016100f1565b61054082346000610805565b92915050565b60006102b633346001610805565b61055c61063a565b6001600160a01b0381166105c15760405162461bcd60e51b815260206004820152602660248201527f4f776e61626c653a206e6577206f776e657220697320746865207a65726f206160448201526564647265737360d01b60648201526084016100f1565b6105ca816109ea565b50565b6105d5610b68565b506001600160a01b03908116600090815260046020908152604091829020825160a081018452815481526001820154928101929092526002810154928201929092526003909101549182166060820152600160a01b90910460ff161515608082015290565b6000546001600160a01b031633146104d85760405162461bcd60e51b815260206004820181905260248201527f4f776e61626c653a2063616c6c6572206973206e6f7420746865206f776e657260448201526064016100f1565b60006106a08284610bf7565b9392505050565b600280549060006106b783610c0a565b909155505033600090815260046020526040812060010155478211156107165760405162461bcd60e51b8152602060048201526014602482015273496e73756666696369656e742062616c616e636560601b60448201526064016100f1565b6000836001600160a01b03168360405160006040518083038185875af1925050503d8060008114610763576040519150601f19603f3d011682016040523d82523d6000602084013e610768565b606091505b50509050806107ad5760405162461bcd60e51b8152602060048201526011602482015270151c985b9cd9995c881c995a9958dd1959607a1b60448201526064016100f1565b60006107b98484610a3a565b905080156107cb576107cb8582610aa3565b6040518481527f11725367022c3ff288940f4b5473aa61c2da6a24af7363a1128ee2401e8983b29060200160405180910390a15050505050565b600080808481610814886105cd565b905060015487101561083c576040516302ee6a2560e21b8152600481018890526024016100f1565b606081015193506001600160a01b03841661089c576003546040516001600160a01b039091169061086c90610ba2565b6001600160a01b039091168152602001604051809103906000f080158015610898573d6000803e3d6000fd5b5093505b600081602001511180156108ae575085155b156108c6576108c684826020015183600001516106a7565b600081602001511180156108d75750855b156108fb5760208101516108eb9088610694565b91506108f8876002610b44565b92505b6040518060a0016040528061090d4290565b8152602080820185905260408083018790526001600160a01b038089166060808601919091528b15156080958601528d82166000908152600485528381208751815594870151600186015592860151600280860191909155908601516003909401805496909501511515600160a01b026001600160a81b03199096169390911692909217939093179091558054916109a483610c21565b90915550506040518281527feebbaa86c348cb664e392b180fd0ff2e1998af9fa833ef69a778cb0b42d3ca279060200160405180910390a1506001979650505050505050565b600080546001600160a01b038381166001600160a01b0319831681178455604051919092169283917f8be0079c531659141344cd1fd0a4f28419497f9722a3daafe3b4186f6b6457e09190a35050565b6000603c42838103610a575766038d7ea4c6800092505050610540565b83811115610a9b576000610a6b8286610b50565b90508015610a8e57610a8783610a818389610b5c565b90610b44565b9350610a99565b66038d7ea4c6800093505b505b505092915050565b6003546040516340c10f1960e01b81526001600160a01b03848116600483015260248201849052909116906340c10f19906044016020604051808303816000875af1158015610af6573d6000803e3d6000fd5b505050506040513d601f19601f82011682018060405250810190610b1a9190610c3a565b610b405760405162461bcd60e51b815260206004820152600060248201526044016100f1565b5050565b60006106a08284610c5c565b60006106a08284610c7e565b60006106a08284610c91565b6040518060a0016040528060008152602001600081526020016000815260200160006001600160a01b031681526020016000151581525090565b61040380610ca983390190565b6001600160a01b03811681146105ca57600080fd5b600060208284031215610bd657600080fd5b81356106a081610baf565b634e487b7160e01b600052601160045260246000fd5b8082018082111561054057610540610be1565b600081610c1957610c19610be1565b506000190190565b600060018201610c3357610c33610be1565b5060010190565b600060208284031215610c4c57600080fd5b815180151581146106a057600080fd5b600082610c7957634e487b7160e01b600052601260045260246000fd5b500490565b8181038181111561054057610540610be1565b808202811582820484141761054057610540610be156fe608060405260405161040338038061040383398101604081905261002291610055565b60008054336001600160a01b031991821617909155600180549091166001600160a01b0392909216919091179055610085565b60006020828403121561006757600080fd5b81516001600160a01b038116811461007e57600080fd5b9392505050565b61036f806100946000396000f3fe60806040526004361061002d5760003560e01c806379c0a3ea1461006c578063f4f3b2001461008e57600080fd5b36610067576040513481527ffd51b9a62feedc9cf075eaada5ee2e87aaaa00219195f21375592867215b3c5e9060200160405180910390a1005b600080fd5b34801561007857600080fd5b5061008c6100873660046102ce565b6100ae565b005b34801561009a57600080fd5b5061008c6100a93660046102ce565b61017c565b6000546001600160a01b031633146100e057604051630b104a5b60e01b81523360048201526024015b60405180910390fd5b60405147906000906001600160a01b0384169083908381818185875af1925050503d806000811461012d576040519150601f19603f3d011682016040523d82523d6000602084013e610132565b606091505b50509050806101775760405162461bcd60e51b81526020600482015260116024820152701dda5d1a191c985dd85b0819985a5b1959607a1b60448201526064016100d7565b505050565b6000546001600160a01b031633146101a957604051630b104a5b60e01b81523360048201526024016100d7565b6001546040516370a0823160e01b81523060048201526000916001600160a01b0316906370a0823190602401602060405180830381865afa1580156101f2573d6000803e3d6000fd5b505050506040513d601f19601f8201168201806040525081019061021691906102fe565b905080156102ca5760015460405163a9059cbb60e01b81526001600160a01b038481166004830152602482018490529091169063a9059cbb906044016020604051808303816000875af1158015610271573d6000803e3d6000fd5b505050506040513d601f19601f820116820180604052508101906102959190610317565b6102ca5760405162461bcd60e51b815260206004820152600660248201526511985a5b195960d21b60448201526064016100d7565b5050565b6000602082840312156102e057600080fd5b81356001600160a01b03811681146102f757600080fd5b9392505050565b60006020828403121561031057600080fd5b5051919050565b60006020828403121561032957600080fd5b815180151581146102f757600080fdfea2646970667358221220c4089dd28be540253ea3c26dc83ea592ddf3b35c778335d012020261a322b16e64736f6c63430008110033a26469706673582212206715f7990c4e3d3471448922da14727c15e83d57ee2fc35f4bdedcb663826b8c64736f6c63430008110033",
    "linkReferences": {}
  },
  "methodIdentifiers": {
    "compoundStaking()": "d9f51183",
    "getStakeProfile()": "0f564071",
    "minimumStaking()": "d479ed71",
    "owner()": "8da5cb5b",
    "renounceOwnership()": "715018a6",
    "setToken(address)": "144fa6d7",
    "stake()": "3a4b66f1",
    "stakeOnBehalf(address)": "9cc776f5",
    "stakers()": "fed1252a",
    "token()": "fc0c546a",
    "transferOwnership(address)": "f2fde38b",
    "unstake()": "2def6620",
    "withdraw()": "3ccfd60b"
  },
  "id": 20
}